{
  "contractName": "Claim",
  "abi": [
    {
      "constant": true,
      "inputs": [
        {
          "name": "",
          "type": "uint256"
        }
      ],
      "name": "TobeCheck",
      "outputs": [
        {
          "name": "",
          "type": "uint256"
        }
      ],
      "payable": false,
      "stateMutability": "view",
      "type": "function"
    },
    {
      "constant": true,
      "inputs": [
        {
          "name": "",
          "type": "uint256"
        }
      ],
      "name": "Requests",
      "outputs": [
        {
          "name": "cowId",
          "type": "uint256"
        },
        {
          "name": "date",
          "type": "uint256"
        },
        {
          "name": "farmer",
          "type": "address"
        }
      ],
      "payable": false,
      "stateMutability": "view",
      "type": "function"
    },
    {
      "constant": true,
      "inputs": [
        {
          "name": "",
          "type": "uint256"
        }
      ],
      "name": "TobeReply",
      "outputs": [
        {
          "name": "",
          "type": "uint256"
        }
      ],
      "payable": false,
      "stateMutability": "view",
      "type": "function"
    },
    {
      "constant": true,
      "inputs": [
        {
          "name": "",
          "type": "uint256"
        }
      ],
      "name": "ReplyedRequests",
      "outputs": [
        {
          "components": [
            {
              "components": [
                {
                  "name": "cowId",
                  "type": "uint256"
                },
                {
                  "name": "date",
                  "type": "uint256"
                },
                {
                  "name": "farmer",
                  "type": "address"
                }
              ],
              "name": "request",
              "type": "tuple"
            },
            {
              "name": "is_sick",
              "type": "bool"
            },
            {
              "name": "checkdate",
              "type": "uint256"
            },
            {
              "name": "vet",
              "type": "address"
            }
          ],
          "name": "checkedRequest",
          "type": "tuple"
        },
        {
          "name": "is_accepted",
          "type": "bool"
        },
        {
          "name": "replydate",
          "type": "uint256"
        },
        {
          "name": "insurance",
          "type": "address"
        }
      ],
      "payable": false,
      "stateMutability": "view",
      "type": "function"
    },
    {
      "constant": true,
      "inputs": [
        {
          "name": "",
          "type": "uint256"
        }
      ],
      "name": "CheckedRequests",
      "outputs": [
        {
          "components": [
            {
              "name": "cowId",
              "type": "uint256"
            },
            {
              "name": "date",
              "type": "uint256"
            },
            {
              "name": "farmer",
              "type": "address"
            }
          ],
          "name": "request",
          "type": "tuple"
        },
        {
          "name": "is_sick",
          "type": "bool"
        },
        {
          "name": "checkdate",
          "type": "uint256"
        },
        {
          "name": "vet",
          "type": "address"
        }
      ],
      "payable": false,
      "stateMutability": "view",
      "type": "function"
    },
    {
      "constant": true,
      "inputs": [
        {
          "name": "",
          "type": "uint256"
        }
      ],
      "name": "Requesthistory",
      "outputs": [
        {
          "name": "",
          "type": "uint256"
        }
      ],
      "payable": false,
      "stateMutability": "view",
      "type": "function"
    },
    {
      "constant": false,
      "inputs": [
        {
          "name": "cowId",
          "type": "uint256"
        },
        {
          "name": "date",
          "type": "uint256"
        }
      ],
      "name": "initRequest",
      "outputs": [
        {
          "name": "",
          "type": "uint256"
        }
      ],
      "payable": false,
      "stateMutability": "nonpayable",
      "type": "function"
    },
    {
      "constant": false,
      "inputs": [
        {
          "name": "check",
          "type": "bool"
        },
        {
          "name": "requestId",
          "type": "uint256"
        },
        {
          "name": "checkdate",
          "type": "uint256"
        }
      ],
      "name": "vetCheck",
      "outputs": [
        {
          "name": "",
          "type": "uint256"
        }
      ],
      "payable": false,
      "stateMutability": "nonpayable",
      "type": "function"
    },
    {
      "constant": false,
      "inputs": [
        {
          "name": "reply",
          "type": "bool"
        },
        {
          "name": "requestId",
          "type": "uint256"
        },
        {
          "name": "replydate",
          "type": "uint256"
        }
      ],
      "name": "replayClaim",
      "outputs": [
        {
          "name": "",
          "type": "uint256"
        }
      ],
      "payable": false,
      "stateMutability": "nonpayable",
      "type": "function"
    },
    {
      "constant": true,
      "inputs": [
        {
          "name": "index",
          "type": "uint256"
        }
      ],
      "name": "getRequest",
      "outputs": [
        {
          "name": "",
          "type": "uint256[]"
        }
      ],
      "payable": false,
      "stateMutability": "view",
      "type": "function"
    }
  ],
  "bytecode": "0x608060405234801561001057600080fd5b50610ea7806100206000396000f3006080604052600436106100a4576000357c0100000000000000000000000000000000000000000000000000000000900463ffffffff16806325ebb1f8146100a95780632a311942146100f457806340ac9993146101355780634278383f146101b057806356eb460214610207578063683f575714610248578063921c2e1b146102ce578063c58343ef14610354578063ddcf7218146103d6578063e37fc52f14610417575b600080fd5b3480156100b557600080fd5b506100de600480360381019080803590602001909291908035906020019092919050505061046e565b6040518082815260200191505060405180910390f35b34801561010057600080fd5b5061011f60048036038101908080359060200190929190505050610580565b6040518082815260200191505060405180910390f35b34801561014157600080fd5b50610160600480360381019080803590602001909291905050506105a3565b604051808481526020018381526020018273ffffffffffffffffffffffffffffffffffffffff1673ffffffffffffffffffffffffffffffffffffffff168152602001935050505060405180910390f35b3480156101bc57600080fd5b506101f160048036038101908080351515906020019092919080359060200190929190803590602001909291905050506105ed565b6040518082815260200191505060405180910390f35b34801561021357600080fd5b50610232600480360381019080803590602001909291905050506108d9565b6040518082815260200191505060405180910390f35b34801561025457600080fd5b50610273600480360381019080803590602001909291905050506108fc565b60405180858152602001841515151581526020018381526020018273ffffffffffffffffffffffffffffffffffffffff1673ffffffffffffffffffffffffffffffffffffffff16815260200194505050505060405180910390f35b3480156102da57600080fd5b506102f960048036038101908080359060200190929190505050610a5e565b60405180858152602001841515151581526020018381526020018273ffffffffffffffffffffffffffffffffffffffff1673ffffffffffffffffffffffffffffffffffffffff16815260200194505050505060405180910390f35b34801561036057600080fd5b5061037f60048036038101908080359060200190929190505050610b30565b6040518080602001828103825283818151815260200191508051906020019060200280838360005b838110156103c25780820151818401526020810190506103a7565b505050509050019250505060405180910390f35b3480156103e257600080fd5b5061040160048036038101908080359060200190929190505050610c4d565b6040518082815260200191505060405180910390f35b34801561042357600080fd5b506104586004803603810190808035151590602001909291908035906020019092919080359060200190929190505050610c70565b6040518082815260200191505060405180910390f35b600080826305f5e10085020190506060604051908101604052808581526020018481526020013373ffffffffffffffffffffffffffffffffffffffff16815250600080838152602001908152602001600020600082015181600001556020820151816001015560408201518160020160006101000a81548173ffffffffffffffffffffffffffffffffffffffff021916908373ffffffffffffffffffffffffffffffffffffffff160217905550905050600381908060018154018082558091505090600182039060005260206000200160009091929091909150555060048190806001815401808255809150509060018203906000526020600020016000909192909190915055508091505092915050565b60048181548110151561058f57fe5b906000526020600020016000915090505481565b60006020528060005260406000206000915090508060000154908060010154908060020160009054906101000a900473ffffffffffffffffffffffffffffffffffffffff16905083565b60006080604051908101604052806001600086815260200190815260200160002060806040519081016040529081600082016060604051908101604052908160008201548152602001600182015481526020016002820160009054906101000a900473ffffffffffffffffffffffffffffffffffffffff1673ffffffffffffffffffffffffffffffffffffffff1673ffffffffffffffffffffffffffffffffffffffff168152505081526020016003820160009054906101000a900460ff16151515158152602001600482015481526020016005820160009054906101000a900473ffffffffffffffffffffffffffffffffffffffff1673ffffffffffffffffffffffffffffffffffffffff1673ffffffffffffffffffffffffffffffffffffffff1681525050815260200185151581526020018381526020013373ffffffffffffffffffffffffffffffffffffffff1681525060026000858152602001908152602001600020600082015181600001600082015181600001600082015181600001556020820151816001015560408201518160020160006101000a81548173ffffffffffffffffffffffffffffffffffffffff021916908373ffffffffffffffffffffffffffffffffffffffff160217905550505060208201518160030160006101000a81548160ff0219169083151502179055506040820151816004015560608201518160050160006101000a81548173ffffffffffffffffffffffffffffffffffffffff021916908373ffffffffffffffffffffffffffffffffffffffff160217905550505060208201518160060160006101000a81548160ff0219169083151502179055506040820151816007015560608201518160080160006101000a81548173ffffffffffffffffffffffffffffffffffffffff021916908373ffffffffffffffffffffffffffffffffffffffff16021790555090505060056001600580549050038154811015156108c157fe5b90600052602060002001600090558290509392505050565b6005818154811015156108e857fe5b906000526020600020016000915090505481565b60026020528060005260406000206000915090508060000160806040519081016040529081600082016060604051908101604052908160008201548152602001600182015481526020016002820160009054906101000a900473ffffffffffffffffffffffffffffffffffffffff1673ffffffffffffffffffffffffffffffffffffffff1673ffffffffffffffffffffffffffffffffffffffff168152505081526020016003820160009054906101000a900460ff16151515158152602001600482015481526020016005820160009054906101000a900473ffffffffffffffffffffffffffffffffffffffff1673ffffffffffffffffffffffffffffffffffffffff1673ffffffffffffffffffffffffffffffffffffffff1681525050908060060160009054906101000a900460ff16908060070154908060080160009054906101000a900473ffffffffffffffffffffffffffffffffffffffff16905084565b6001602052806000526040600020600091509050806000016060604051908101604052908160008201548152602001600182015481526020016002820160009054906101000a900473ffffffffffffffffffffffffffffffffffffffff1673ffffffffffffffffffffffffffffffffffffffff1673ffffffffffffffffffffffffffffffffffffffff1681525050908060030160009054906101000a900460ff16908060040154908060050160009054906101000a900473ffffffffffffffffffffffffffffffffffffffff16905084565b60606000821415610b93576003805480602002602001604051908101604052809291908181526020018280548015610b8757602002820191906000526020600020905b815481526020019060010190808311610b73575b50505050509050610c48565b6001821415610bf4576004805480602002602001604051908101604052809291908181526020018280548015610be857602002820191906000526020600020905b815481526020019060010190808311610bd4575b50505050509050610c48565b6005805480602002602001604051908101604052809291908181526020018280548015610c4057602002820191906000526020600020905b815481526020019060010190808311610c2c575b505050505090505b919050565b600381815481101515610c5c57fe5b906000526020600020016000915090505481565b60006080604051908101604052806000808681526020019081526020016000206060604051908101604052908160008201548152602001600182015481526020016002820160009054906101000a900473ffffffffffffffffffffffffffffffffffffffff1673ffffffffffffffffffffffffffffffffffffffff1673ffffffffffffffffffffffffffffffffffffffff1681525050815260200185151581526020018381526020013373ffffffffffffffffffffffffffffffffffffffff1681525060016000858152602001908152602001600020600082015181600001600082015181600001556020820151816001015560408201518160020160006101000a81548173ffffffffffffffffffffffffffffffffffffffff021916908373ffffffffffffffffffffffffffffffffffffffff160217905550505060208201518160030160006101000a81548160ff0219169083151502179055506040820151816004015560608201518160050160006101000a81548173ffffffffffffffffffffffffffffffffffffffff021916908373ffffffffffffffffffffffffffffffffffffffff1602179055509050506004600160048054905003815481101515610e3757fe5b9060005260206000200160009055600583908060018154018082558091505090600182039060005260206000200160009091929091909150555082905093925050505600a165627a7a723058209692ec99fd872ac7598236d9dcb87483f03dcc5b787b27d77933df95d2b1bb350029",
  "source": "pragma solidity ^0.4.17;\n\ncontract Claim {\n  \n\n  // struct Cow {\n  //  uint cowId; //eg.666666\n  //  uint birthday; //eg.180822\n  //  address farmerId;\n  // }\n\n  struct Request {\n    uint cowId;\n    uint date; \n    // uint requestId;\n        address farmer;\n    // address vet;\n    // address insurance;\n    // uint state; // 0:to be check, -1:unhealthy, 1:healthy\n    // uint reply; //0:to be reply, -1:rejected, 1:accepted\n    // uint checkdate;//0 to be check\n    // uint replydate;//0 to be reply\n  }\n\n    struct CheckedRequest {\n        Request request;\n        bool is_sick;\n        uint checkdate;\n        address vet;\n    }\n\n    struct ReplyedRequest {\n        CheckedRequest checkedRequest;\n        bool is_accepted;\n        uint replydate;\n        address insurance;\n    }\n\n  // mapping(uint => Cow) public Cows;\n\n  mapping(uint => Request) public Requests; \n    mapping(uint => CheckedRequest) public CheckedRequests; \n    mapping(uint => ReplyedRequest) public ReplyedRequests; \n\n    uint[] public Requesthistory; // No.0\n    uint[] public TobeCheck; //No.1\n    uint[] public TobeReply; //No.2\n\n  // function registerCow(uint cowId, uint birthday) public return (uint) {\n  //  require(Cows[cowId] == 0);\n  //  Cows[cowId] = cow(cowId, birthday, msg.sender);\n  //  return cowId; \n  // }\n\n\n\n  function initRequest(uint cowId, uint date) public returns (uint) {\n    uint requestId;\n        requestId = cowId * 100000000 + date; // 66666620180822\n    Requests[requestId] = Request(cowId, date, msg.sender);\n        Requesthistory.push(requestId);\n        TobeCheck.push(requestId);\n\n    return requestId;\n  }\n\n   \n    function vetCheck(bool check, uint requestId, uint checkdate) public returns (uint) {\n      // require(!StringUtils.equal(Requests[requestId],\"0\"));\n      // require(StringUtils.equal(CheckedRequests[requestId], \"0\"));\n      \n      CheckedRequests[requestId] = CheckedRequest(Requests[requestId], check, checkdate, msg.sender);\n        delete TobeCheck[TobeCheck.length - 1];\n        TobeReply.push(requestId);\n\n      return requestId;\n    }\n\n\n    function replayClaim(bool reply, uint requestId, uint replydate) public returns (uint) {\n    \n      ReplyedRequests[requestId] = ReplyedRequest(CheckedRequests[requestId], reply, replydate, msg.sender);\n        delete TobeReply[TobeReply.length - 1];\n\n      return requestId;\n    }\n\n\n    function getRequest(uint index) public view returns (uint[]) {\n        if (index == 0){\n            return Requesthistory;    \n        } else if (index == 1) {\n            return TobeCheck;\n        } else {\n            return TobeReply;\n        }\n        \n    }\n\n    \n\n} ",
  "sourcePath": "/home/tron/blockchain/blockchain/contracts/Claim.sol",
  "compiler": {
    "name": "solc",
    "version": "0.4.24+commit.e67f0147.Emscripten.clang"
  },
  "schemaVersion": "2.0.1",
  "updatedAt": "2018-08-27T15:05:13.882Z"
}