{
  "contractName": "FarmingInsurance",
  "abi": [
    {
      "constant": true,
      "inputs": [
        {
          "name": "",
          "type": "uint256"
        }
      ],
      "name": "Claimhistory",
      "outputs": [
        {
          "name": "",
          "type": "uint256"
        }
      ],
      "payable": false,
      "stateMutability": "view",
      "type": "function"
    },
    {
      "constant": true,
      "inputs": [
        {
          "name": "",
          "type": "uint256"
        }
      ],
      "name": "ReplyedClaims",
      "outputs": [
        {
          "components": [
            {
              "components": [
                {
                  "name": "cowId",
                  "type": "uint256"
                },
                {
                  "name": "date",
                  "type": "uint256"
                },
                {
                  "name": "farmer",
                  "type": "address"
                }
              ],
              "name": "claim",
              "type": "tuple"
            },
            {
              "name": "is_sick",
              "type": "bool"
            },
            {
              "name": "checkdate",
              "type": "uint256"
            },
            {
              "name": "vet",
              "type": "address"
            }
          ],
          "name": "checkedClaim",
          "type": "tuple"
        },
        {
          "name": "is_accepted",
          "type": "bool"
        },
        {
          "name": "replydate",
          "type": "uint256"
        },
        {
          "name": "insurance",
          "type": "address"
        }
      ],
      "payable": false,
      "stateMutability": "view",
      "type": "function"
    },
    {
      "constant": true,
      "inputs": [
        {
          "name": "",
          "type": "uint256"
        }
      ],
      "name": "TobeCheck",
      "outputs": [
        {
          "name": "",
          "type": "uint256"
        }
      ],
      "payable": false,
      "stateMutability": "view",
      "type": "function"
    },
    {
      "constant": true,
      "inputs": [],
      "name": "chairperson",
      "outputs": [
        {
          "name": "",
          "type": "address"
        }
      ],
      "payable": false,
      "stateMutability": "view",
      "type": "function"
    },
    {
      "constant": true,
      "inputs": [
        {
          "name": "",
          "type": "address"
        }
      ],
      "name": "farms",
      "outputs": [
        {
          "name": "name",
          "type": "string"
        },
        {
          "name": "numCows",
          "type": "uint256"
        }
      ],
      "payable": false,
      "stateMutability": "view",
      "type": "function"
    },
    {
      "constant": true,
      "inputs": [
        {
          "name": "",
          "type": "uint256"
        }
      ],
      "name": "TobeReply",
      "outputs": [
        {
          "name": "",
          "type": "uint256"
        }
      ],
      "payable": false,
      "stateMutability": "view",
      "type": "function"
    },
    {
      "constant": true,
      "inputs": [
        {
          "name": "",
          "type": "uint256"
        }
      ],
      "name": "farmVotes",
      "outputs": [
        {
          "name": "voteCount",
          "type": "uint256"
        },
        {
          "name": "farmAddr",
          "type": "address"
        }
      ],
      "payable": false,
      "stateMutability": "view",
      "type": "function"
    },
    {
      "constant": true,
      "inputs": [
        {
          "name": "",
          "type": "uint256"
        }
      ],
      "name": "Claims",
      "outputs": [
        {
          "name": "cowId",
          "type": "uint256"
        },
        {
          "name": "date",
          "type": "uint256"
        },
        {
          "name": "farmer",
          "type": "address"
        }
      ],
      "payable": false,
      "stateMutability": "view",
      "type": "function"
    },
    {
      "constant": true,
      "inputs": [
        {
          "name": "",
          "type": "address"
        }
      ],
      "name": "voters",
      "outputs": [
        {
          "name": "weight",
          "type": "uint256"
        },
        {
          "name": "voted",
          "type": "bool"
        },
        {
          "name": "delegate",
          "type": "address"
        },
        {
          "name": "vote",
          "type": "uint256"
        }
      ],
      "payable": false,
      "stateMutability": "view",
      "type": "function"
    },
    {
      "constant": true,
      "inputs": [
        {
          "name": "",
          "type": "uint256"
        }
      ],
      "name": "CheckedClaims",
      "outputs": [
        {
          "components": [
            {
              "name": "cowId",
              "type": "uint256"
            },
            {
              "name": "date",
              "type": "uint256"
            },
            {
              "name": "farmer",
              "type": "address"
            }
          ],
          "name": "claim",
          "type": "tuple"
        },
        {
          "name": "is_sick",
          "type": "bool"
        },
        {
          "name": "checkdate",
          "type": "uint256"
        },
        {
          "name": "vet",
          "type": "address"
        }
      ],
      "payable": false,
      "stateMutability": "view",
      "type": "function"
    },
    {
      "anonymous": false,
      "inputs": [
        {
          "indexed": true,
          "name": "cowID",
          "type": "uint256"
        },
        {
          "indexed": true,
          "name": "eventID",
          "type": "uint256"
        },
        {
          "indexed": true,
          "name": "farm",
          "type": "address"
        }
      ],
      "name": "CowEvent",
      "type": "event"
    },
    {
      "constant": true,
      "inputs": [
        {
          "name": "farm",
          "type": "address"
        }
      ],
      "name": "numberOfCows",
      "outputs": [
        {
          "name": "cowAmount",
          "type": "uint256"
        }
      ],
      "payable": false,
      "stateMutability": "view",
      "type": "function"
    },
    {
      "constant": false,
      "inputs": [
        {
          "name": "name",
          "type": "string"
        }
      ],
      "name": "newCow",
      "outputs": [
        {
          "name": "cowID",
          "type": "uint256"
        }
      ],
      "payable": false,
      "stateMutability": "nonpayable",
      "type": "function"
    },
    {
      "constant": false,
      "inputs": [
        {
          "name": "farm",
          "type": "address"
        },
        {
          "name": "cowID",
          "type": "uint256"
        },
        {
          "name": "description",
          "type": "string"
        }
      ],
      "name": "cowIncident",
      "outputs": [],
      "payable": false,
      "stateMutability": "nonpayable",
      "type": "function"
    },
    {
      "constant": false,
      "inputs": [
        {
          "name": "cowId",
          "type": "uint256"
        },
        {
          "name": "date",
          "type": "uint256"
        }
      ],
      "name": "initClaim",
      "outputs": [
        {
          "name": "",
          "type": "uint256"
        }
      ],
      "payable": false,
      "stateMutability": "nonpayable",
      "type": "function"
    },
    {
      "constant": false,
      "inputs": [
        {
          "name": "check",
          "type": "bool"
        },
        {
          "name": "claimId",
          "type": "uint256"
        },
        {
          "name": "checkdate",
          "type": "uint256"
        }
      ],
      "name": "vetCheck",
      "outputs": [
        {
          "name": "",
          "type": "uint256"
        }
      ],
      "payable": false,
      "stateMutability": "nonpayable",
      "type": "function"
    },
    {
      "constant": false,
      "inputs": [
        {
          "name": "reply",
          "type": "bool"
        },
        {
          "name": "claimId",
          "type": "uint256"
        },
        {
          "name": "replydate",
          "type": "uint256"
        }
      ],
      "name": "replyClaim",
      "outputs": [
        {
          "name": "",
          "type": "uint256"
        }
      ],
      "payable": false,
      "stateMutability": "nonpayable",
      "type": "function"
    },
    {
      "constant": true,
      "inputs": [
        {
          "name": "index",
          "type": "uint256"
        }
      ],
      "name": "getClaim",
      "outputs": [
        {
          "name": "",
          "type": "uint256[]"
        }
      ],
      "payable": false,
      "stateMutability": "view",
      "type": "function"
    },
    {
      "constant": false,
      "inputs": [
        {
          "name": "_farmAddr",
          "type": "address"
        }
      ],
      "name": "addFarmToVoting",
      "outputs": [],
      "payable": false,
      "stateMutability": "nonpayable",
      "type": "function"
    },
    {
      "constant": false,
      "inputs": [
        {
          "name": "voter",
          "type": "address"
        }
      ],
      "name": "giveRightToVote",
      "outputs": [],
      "payable": false,
      "stateMutability": "nonpayable",
      "type": "function"
    },
    {
      "constant": false,
      "inputs": [
        {
          "name": "to",
          "type": "address"
        }
      ],
      "name": "delegate",
      "outputs": [],
      "payable": false,
      "stateMutability": "nonpayable",
      "type": "function"
    },
    {
      "constant": false,
      "inputs": [
        {
          "name": "farm",
          "type": "uint256"
        }
      ],
      "name": "vote",
      "outputs": [],
      "payable": false,
      "stateMutability": "nonpayable",
      "type": "function"
    },
    {
      "constant": true,
      "inputs": [],
      "name": "winningFarm",
      "outputs": [
        {
          "name": "winningFarm_",
          "type": "uint256"
        }
      ],
      "payable": false,
      "stateMutability": "view",
      "type": "function"
    },
    {
      "constant": true,
      "inputs": [],
      "name": "winnerName",
      "outputs": [
        {
          "name": "winnerName_",
          "type": "string"
        }
      ],
      "payable": false,
      "stateMutability": "view",
      "type": "function"
    }
  ],
  "bytecode": "0x608060405234801561001057600080fd5b506124b1806100206000396000f300608060405260043610610133576000357c0100000000000000000000000000000000000000000000000000000000900463ffffffff1680630121b93f1461013857806303583e74146101655780630aeeffb1146101a65780632a3119421461022c5780632e4176cf1461026d578063332899cb146102c4578063421adfa0146102ef5780634519c832146103b25780634a0eb04b1461040957806352e00b2d1461045457806356eb4602146104ab5780635aef2447146104ec5780635c19a95c1461056e578063725d8054146105b15780638cb6a4c71461062e5780639e34c7d2146106a25780639e7b8d611461071d578063a3ec138d14610760578063b628ae77146107fc578063bf2055a914610882578063e2ba53f014610915578063e37fc52f146109a5578063e6594bc9146109fc575b600080fd5b34801561014457600080fd5b5061016360048036038101908080359060200190929190505050610a3f565b005b34801561017157600080fd5b5061019060048036038101908080359060200190929190505050610b65565b6040518082815260200191505060405180910390f35b3480156101b257600080fd5b506101d160048036038101908080359060200190929190505050610b88565b60405180858152602001841515151581526020018381526020018273ffffffffffffffffffffffffffffffffffffffff1673ffffffffffffffffffffffffffffffffffffffff16815260200194505050505060405180910390f35b34801561023857600080fd5b5061025760048036038101908080359060200190929190505050610cea565b6040518082815260200191505060405180910390f35b34801561027957600080fd5b50610282610d0d565b604051808273ffffffffffffffffffffffffffffffffffffffff1673ffffffffffffffffffffffffffffffffffffffff16815260200191505060405180910390f35b3480156102d057600080fd5b506102d9610d33565b6040518082815260200191505060405180910390f35b3480156102fb57600080fd5b50610330600480360381019080803573ffffffffffffffffffffffffffffffffffffffff169060200190929190505050610dae565b6040518080602001838152602001828103825284818151815260200191508051906020019080838360005b8381101561037657808201518184015260208101905061035b565b50505050905090810190601f1680156103a35780820380516001836020036101000a031916815260200191505b50935050505060405180910390f35b3480156103be57600080fd5b506103f3600480360381019080803573ffffffffffffffffffffffffffffffffffffffff169060200190929190505050610e6a565b6040518082815260200191505060405180910390f35b34801561041557600080fd5b5061043e6004803603810190808035906020019092919080359060200190929190505050610eb5565b6040518082815260200191505060405180910390f35b34801561046057600080fd5b506104956004803603810190808035151590602001909291908035906020019092919080359060200190929190505050610fe6565b6040518082815260200191505060405180910390f35b3480156104b757600080fd5b506104d6600480360381019080803590602001909291905050506112d2565b6040518082815260200191505060405180910390f35b3480156104f857600080fd5b50610517600480360381019080803590602001909291905050506112f5565b6040518080602001828103825283818151815260200191508051906020019060200280838360005b8381101561055a57808201518184015260208101905061053f565b505050509050019250505060405180910390f35b34801561057a57600080fd5b506105af600480360381019080803573ffffffffffffffffffffffffffffffffffffffff169060200190929190505050611412565b005b3480156105bd57600080fd5b50610618600480360381019080803590602001908201803590602001908080601f0160208091040260200160405190810160405280939291908181526020018383808284378201915050505050509192919290505050611837565b6040518082815260200191505060405180910390f35b34801561063a57600080fd5b5061065960048036038101908080359060200190929190505050611925565b604051808381526020018273ffffffffffffffffffffffffffffffffffffffff1673ffffffffffffffffffffffffffffffffffffffff1681526020019250505060405180910390f35b3480156106ae57600080fd5b506106cd60048036038101908080359060200190929190505050611978565b604051808481526020018381526020018273ffffffffffffffffffffffffffffffffffffffff1673ffffffffffffffffffffffffffffffffffffffff168152602001935050505060405180910390f35b34801561072957600080fd5b5061075e600480360381019080803573ffffffffffffffffffffffffffffffffffffffff1690602001909291905050506119c2565b005b34801561076c57600080fd5b506107a1600480360381019080803573ffffffffffffffffffffffffffffffffffffffff169060200190929190505050611c0e565b60405180858152602001841515151581526020018373ffffffffffffffffffffffffffffffffffffffff1673ffffffffffffffffffffffffffffffffffffffff16815260200182815260200194505050505060405180910390f35b34801561080857600080fd5b5061082760048036038101908080359060200190929190505050611c6b565b60405180858152602001841515151581526020018381526020018273ffffffffffffffffffffffffffffffffffffffff1673ffffffffffffffffffffffffffffffffffffffff16815260200194505050505060405180910390f35b34801561088e57600080fd5b50610913600480360381019080803573ffffffffffffffffffffffffffffffffffffffff16906020019092919080359060200190929190803590602001908201803590602001908080601f0160208091040260200160405190810160405280939291908181526020018383808284378201915050505050509192919290505050611d3d565b005b34801561092157600080fd5b5061092a611f37565b6040518080602001828103825283818151815260200191508051906020019080838360005b8381101561096a57808201518184015260208101905061094f565b50505050905090810190601f1680156109975780820380516001836020036101000a031916815260200191505b509250505060405180910390f35b3480156109b157600080fd5b506109e6600480360381019080803515159060200190929190803590602001909291908035906020019092919050505061205f565b6040518082815260200191505060405180910390f35b348015610a0857600080fd5b50610a3d600480360381019080803573ffffffffffffffffffffffffffffffffffffffff16906020019092919050505061226b565b005b6000600960003373ffffffffffffffffffffffffffffffffffffffff1673ffffffffffffffffffffffffffffffffffffffff16815260200190815260200160002090508060010160009054906101000a900460ff16151515610b09576040517f08c379a000000000000000000000000000000000000000000000000000000000815260040180806020018281038252600e8152602001807f416c726561647920766f7465642e00000000000000000000000000000000000081525060200191505060405180910390fd5b60018160010160006101000a81548160ff0219169083151502179055508181600201819055508060000154600a83815481101515610b4357fe5b9060005260206000209060020201600001600082825401925050819055505050565b600481815481101515610b7457fe5b906000526020600020016000915090505481565b60036020528060005260406000206000915090508060000160806040519081016040529081600082016060604051908101604052908160008201548152602001600182015481526020016002820160009054906101000a900473ffffffffffffffffffffffffffffffffffffffff1673ffffffffffffffffffffffffffffffffffffffff1673ffffffffffffffffffffffffffffffffffffffff168152505081526020016003820160009054906101000a900460ff16151515158152602001600482015481526020016005820160009054906101000a900473ffffffffffffffffffffffffffffffffffffffff1673ffffffffffffffffffffffffffffffffffffffff1673ffffffffffffffffffffffffffffffffffffffff1681525050908060060160009054906101000a900460ff16908060070154908060080160009054906101000a900473ffffffffffffffffffffffffffffffffffffffff16905084565b600581815481101515610cf957fe5b906000526020600020016000915090505481565b600860009054906101000a900473ffffffffffffffffffffffffffffffffffffffff1681565b6000806000809150600090505b600a80549050811015610da95781600a82815481101515610d5d57fe5b9060005260206000209060020201600001541115610d9c57600a81815481101515610d8457fe5b90600052602060002090600202016000015491508092505b8080600101915050610d40565b505090565b6000602052806000526040600020600091509050806000018054600181600116156101000203166002900480601f016020809104026020016040519081016040528092919081815260200182805460018160011615610100020316600290048015610e5a5780601f10610e2f57610100808354040283529160200191610e5a565b820191906000526020600020905b815481529060010190602001808311610e3d57829003601f168201915b5050505050908060010154905082565b60008060008373ffffffffffffffffffffffffffffffffffffffff1673ffffffffffffffffffffffffffffffffffffffff168152602001908152602001600020600101549050919050565b60008060076000815480929190600101919050559050610ed433610e6a565b84101515610ee157600080fd5b6060604051908101604052808581526020018481526020013373ffffffffffffffffffffffffffffffffffffffff1681525060016000838152602001908152602001600020600082015181600001556020820151816001015560408201518160020160006101000a81548173ffffffffffffffffffffffffffffffffffffffff021916908373ffffffffffffffffffffffffffffffffffffffff160217905550905050600481908060018154018082558091505090600182039060005260206000200160009091929091909150555060058190806001815401808255809150509060018203906000526020600020016000909192909190915055508091505092915050565b60006080604051908101604052806002600086815260200190815260200160002060806040519081016040529081600082016060604051908101604052908160008201548152602001600182015481526020016002820160009054906101000a900473ffffffffffffffffffffffffffffffffffffffff1673ffffffffffffffffffffffffffffffffffffffff1673ffffffffffffffffffffffffffffffffffffffff168152505081526020016003820160009054906101000a900460ff16151515158152602001600482015481526020016005820160009054906101000a900473ffffffffffffffffffffffffffffffffffffffff1673ffffffffffffffffffffffffffffffffffffffff1673ffffffffffffffffffffffffffffffffffffffff1681525050815260200185151581526020018381526020013373ffffffffffffffffffffffffffffffffffffffff1681525060036000858152602001908152602001600020600082015181600001600082015181600001600082015181600001556020820151816001015560408201518160020160006101000a81548173ffffffffffffffffffffffffffffffffffffffff021916908373ffffffffffffffffffffffffffffffffffffffff160217905550505060208201518160030160006101000a81548160ff0219169083151502179055506040820151816004015560608201518160050160006101000a81548173ffffffffffffffffffffffffffffffffffffffff021916908373ffffffffffffffffffffffffffffffffffffffff160217905550505060208201518160060160006101000a81548160ff0219169083151502179055506040820151816007015560608201518160080160006101000a81548173ffffffffffffffffffffffffffffffffffffffff021916908373ffffffffffffffffffffffffffffffffffffffff16021790555090505060066001600680549050038154811015156112ba57fe5b90600052602060002001600090558290509392505050565b6006818154811015156112e157fe5b906000526020600020016000915090505481565b6060600082141561135857600480548060200260200160405190810160405280929190818152602001828054801561134c57602002820191906000526020600020905b815481526020019060010190808311611338575b5050505050905061140d565b60018214156113b95760058054806020026020016040519081016040528092919081815260200182805480156113ad57602002820191906000526020600020905b815481526020019060010190808311611399575b5050505050905061140d565b600680548060200260200160405190810160405280929190818152602001828054801561140557602002820191906000526020600020905b8154815260200190600101908083116113f1575b505050505090505b919050565b600080600960003373ffffffffffffffffffffffffffffffffffffffff1673ffffffffffffffffffffffffffffffffffffffff16815260200190815260200160002091508160010160009054906101000a900460ff161515156114dd576040517f08c379a00000000000000000000000000000000000000000000000000000000081526004018080602001828103825260128152602001807f596f7520616c726561647920766f7465642e000000000000000000000000000081525060200191505060405180910390fd5b3373ffffffffffffffffffffffffffffffffffffffff168373ffffffffffffffffffffffffffffffffffffffff1614151515611581576040517f08c379a000000000000000000000000000000000000000000000000000000000815260040180806020018281038252601e8152602001807f53656c662d64656c65676174696f6e20697320646973616c6c6f7765642e000081525060200191505060405180910390fd5b5b600073ffffffffffffffffffffffffffffffffffffffff16600960008573ffffffffffffffffffffffffffffffffffffffff1673ffffffffffffffffffffffffffffffffffffffff16815260200190815260200160002060010160019054906101000a900473ffffffffffffffffffffffffffffffffffffffff1673ffffffffffffffffffffffffffffffffffffffff1614151561172857600960008473ffffffffffffffffffffffffffffffffffffffff1673ffffffffffffffffffffffffffffffffffffffff16815260200190815260200160002060010160019054906101000a900473ffffffffffffffffffffffffffffffffffffffff1692503373ffffffffffffffffffffffffffffffffffffffff168373ffffffffffffffffffffffffffffffffffffffff1614151515611723576040517f08c379a00000000000000000000000000000000000000000000000000000000081526004018080602001828103825260198152602001807f466f756e64206c6f6f7020696e2064656c65676174696f6e2e0000000000000081525060200191505060405180910390fd5b611582565b60018260010160006101000a81548160ff021916908315150217905550828260010160016101000a81548173ffffffffffffffffffffffffffffffffffffffff021916908373ffffffffffffffffffffffffffffffffffffffff160217905550600960008473ffffffffffffffffffffffffffffffffffffffff1673ffffffffffffffffffffffffffffffffffffffff16815260200190815260200160002090508060010160009054906101000a900460ff161561181b578160000154600a82600201548154811015156117f857fe5b906000526020600020906002020160000160008282540192505081905550611832565b816000015481600001600082825401925050819055505b505050565b60008060003373ffffffffffffffffffffffffffffffffffffffff1673ffffffffffffffffffffffffffffffffffffffff1681526020019081526020016000206001016000815480929190600101919050559050604080519081016040528083815260200160008152506000803373ffffffffffffffffffffffffffffffffffffffff1673ffffffffffffffffffffffffffffffffffffffff1681526020019081526020016000206002016000838152602001908152602001600020600082015181600001908051906020019061190f9291906123e0565b5060208201518160020155905050809050919050565b600a8181548110151561193457fe5b90600052602060002090600202016000915090508060000154908060010160009054906101000a900473ffffffffffffffffffffffffffffffffffffffff16905082565b60016020528060005260406000206000915090508060000154908060010154908060020160009054906101000a900473ffffffffffffffffffffffffffffffffffffffff16905083565b600860009054906101000a900473ffffffffffffffffffffffffffffffffffffffff1673ffffffffffffffffffffffffffffffffffffffff163373ffffffffffffffffffffffffffffffffffffffff16141515611aad576040517f08c379a00000000000000000000000000000000000000000000000000000000081526004018080602001828103825260288152602001807f4f6e6c79206368616972706572736f6e2063616e20676976652072696768742081526020017f746f20766f74652e00000000000000000000000000000000000000000000000081525060400191505060405180910390fd5b600960008273ffffffffffffffffffffffffffffffffffffffff1673ffffffffffffffffffffffffffffffffffffffff16815260200190815260200160002060010160009054906101000a900460ff16151515611b72576040517f08c379a00000000000000000000000000000000000000000000000000000000081526004018080602001828103825260188152602001807f54686520766f74657220616c726561647920766f7465642e000000000000000081525060200191505060405180910390fd5b6000600960008373ffffffffffffffffffffffffffffffffffffffff1673ffffffffffffffffffffffffffffffffffffffff16815260200190815260200160002060000154141515611bc357600080fd5b6001600960008373ffffffffffffffffffffffffffffffffffffffff1673ffffffffffffffffffffffffffffffffffffffff1681526020019081526020016000206000018190555050565b60096020528060005260406000206000915090508060000154908060010160009054906101000a900460ff16908060010160019054906101000a900473ffffffffffffffffffffffffffffffffffffffff16908060020154905084565b6002602052806000526040600020600091509050806000016060604051908101604052908160008201548152602001600182015481526020016002820160009054906101000a900473ffffffffffffffffffffffffffffffffffffffff1673ffffffffffffffffffffffffffffffffffffffff1673ffffffffffffffffffffffffffffffffffffffff1681525050908060030160009054906101000a900460ff16908060040154908060050160009054906101000a900473ffffffffffffffffffffffffffffffffffffffff16905084565b60008060008573ffffffffffffffffffffffffffffffffffffffff1673ffffffffffffffffffffffffffffffffffffffff1681526020019081526020016000206001015483101515611d8e57600080fd5b6000808573ffffffffffffffffffffffffffffffffffffffff1673ffffffffffffffffffffffffffffffffffffffff1681526020019081526020016000206002016000848152602001908152602001600020600201600081548092919060010191905055905060408051908101604052803373ffffffffffffffffffffffffffffffffffffffff168152602001838152506000808673ffffffffffffffffffffffffffffffffffffffff1673ffffffffffffffffffffffffffffffffffffffff1681526020019081526020016000206002016000858152602001908152602001600020600101600083815260200190815260200160002060008201518160000160006101000a81548173ffffffffffffffffffffffffffffffffffffffff021916908373ffffffffffffffffffffffffffffffffffffffff1602179055506020820151816001019080519060200190611ee89291906123e0565b509050508373ffffffffffffffffffffffffffffffffffffffff1681847f63fbeffbca5d2e3e1d5c5cafe1d5ba72bba87ee4f0f70118993800f2b3f1e79060405160405180910390a450505050565b6060600080600a611f46610d33565b815481101515611f5257fe5b906000526020600020906002020160010160009054906101000a900473ffffffffffffffffffffffffffffffffffffffff1673ffffffffffffffffffffffffffffffffffffffff1673ffffffffffffffffffffffffffffffffffffffff1681526020019081526020016000206000018054600181600116156101000203166002900480601f0160208091040260200160405190810160405280929190818152602001828054600181600116156101000203166002900480156120555780601f1061202a57610100808354040283529160200191612055565b820191906000526020600020905b81548152906001019060200180831161203857829003601f168201915b5050505050905090565b6000608060405190810160405280600160008681526020019081526020016000206060604051908101604052908160008201548152602001600182015481526020016002820160009054906101000a900473ffffffffffffffffffffffffffffffffffffffff1673ffffffffffffffffffffffffffffffffffffffff1673ffffffffffffffffffffffffffffffffffffffff1681525050815260200185151581526020018381526020013373ffffffffffffffffffffffffffffffffffffffff1681525060026000858152602001908152602001600020600082015181600001600082015181600001556020820151816001015560408201518160020160006101000a81548173ffffffffffffffffffffffffffffffffffffffff021916908373ffffffffffffffffffffffffffffffffffffffff160217905550505060208201518160030160006101000a81548160ff0219169083151502179055506040820151816004015560608201518160050160006101000a81548173ffffffffffffffffffffffffffffffffffffffff021916908373ffffffffffffffffffffffffffffffffffffffff160217905550905050600560016005805490500381548110151561222757fe5b906000526020600020016000905560068390806001815401808255809150509060018203906000526020600020016000909192909190915055508290509392505050565b600860009054906101000a900473ffffffffffffffffffffffffffffffffffffffff1673ffffffffffffffffffffffffffffffffffffffff163373ffffffffffffffffffffffffffffffffffffffff16141515612330576040517f08c379a00000000000000000000000000000000000000000000000000000000081526004018080602001828103825260208152602001807f6f6e6c79206368616972706572736f6e20636f756c6420616464206661726d7381525060200191505060405180910390fd5b600a6040805190810160405280600081526020018373ffffffffffffffffffffffffffffffffffffffff16815250908060018154018082558091505090600182039060005260206000209060020201600090919290919091506000820151816000015560208201518160010160006101000a81548173ffffffffffffffffffffffffffffffffffffffff021916908373ffffffffffffffffffffffffffffffffffffffff16021790555050505050565b828054600181600116156101000203166002900490600052602060002090601f016020900481019282601f1061242157805160ff191683800117855561244f565b8280016001018555821561244f579182015b8281111561244e578251825591602001919060010190612433565b5b50905061245c9190612460565b5090565b61248291905b8082111561247e576000816000905550600101612466565b5090565b905600a165627a7a723058204158423728fd64d40cb41b62366f6a056d3a47bd4a15fcff17b70159074e32dd0029",
  "source": "pragma solidity ^0.4.24;\n\ncontract FarmingInsurance {\n\n/////// Farm data management\n    event CowEvent(uint indexed cowID, uint indexed eventID, address indexed farm);\n  \n    struct Cow {\n        string name;\n      \n        mapping(uint => CowEventData) cowEvents;\n        uint numEvents;\n    }\n\n    struct Farm {\n        string name;\n        uint numCows;\n        mapping(uint => Cow) cows;\n    }\n\n    struct CowEventData {\n        address registrar;\n        string description;\n    }\n  \n    mapping(address => Farm) public farms;\n\n    function numberOfCows(address farm) view public returns (uint cowAmount) {\n        return farms[farm].numCows;\n    }\n\n    function newCow(string name) public returns (uint cowID) {\n        cowID = farms[msg.sender].numCows++;\n        farms[msg.sender].cows[cowID] = Cow(name,0);\n        return cowID;\n    }\n\n    function cowIncident(address farm, uint cowID, string description) public {\n        require(cowID < farms[farm].numCows);\n        uint eventID = farms[farm].cows[cowID].numEvents++;\n        farms[farm].cows[cowID].cowEvents[eventID] = CowEventData(msg.sender, description);\n        emit CowEvent(cowID,eventID,farm);\n    }\n\n///////// Claims\n  \tstruct Claim {\n  \t\tuint cowId;\n  \t\tuint date; \n  \t\taddress farmer;\n  \t}\n\n    struct CheckedClaim {\n          Claim claim;\n          bool is_sick;\n          uint checkdate;\n          address vet;\n    }\n\n    struct ReplyedClaim {\n          CheckedClaim checkedClaim;\n          bool is_accepted;\n          uint replydate;\n          address insurance;\n      }\n\n  \t\n  \tmapping(uint => Claim) public Claims; \n    mapping(uint => CheckedClaim) public CheckedClaims; \n    mapping(uint => ReplyedClaim) public ReplyedClaims; \n\n    uint[] public Claimhistory; // No.0\n    uint[] public TobeCheck; //No.1\n    uint[] public TobeReply; //No.2\n\n    uint numberOfClaims;\n\n\n  \tfunction initClaim(uint cowId, uint date) public returns (uint) {\n  \t\tuint claimId = numberOfClaims++;\n        require(cowId < numberOfCows(msg.sender));\n  \t\tClaims[claimId] = Claim(cowId, date, msg.sender);\n        Claimhistory.push(claimId);\n        TobeCheck.push(claimId);\n\n  \t\treturn claimId;\n  \t}\n\n     \n    function vetCheck(bool check, uint claimId, uint checkdate) public returns (uint) {\n      \t\n        CheckedClaims[claimId] = CheckedClaim(Claims[claimId], check, checkdate, msg.sender);\n        delete TobeCheck[TobeCheck.length - 1];\n        TobeReply.push(claimId);\n\n      \treturn claimId;\n     }\n\n\n    function replyClaim(bool reply, uint claimId, uint replydate) public returns (uint) {\n      \t ReplyedClaims[claimId] = ReplyedClaim(CheckedClaims[claimId], reply, replydate, msg.sender);\n         delete TobeReply[TobeReply.length - 1];\n\n      \t return claimId;\n     }\n\n\n    function getClaim(uint index) public view returns (uint[]) {\n        if (index == 0){\n            return Claimhistory;    \n        } else if (index == 1) {\n            return TobeCheck;\n        } else {\n            return TobeReply;\n        }\n          \n    }\n\n//////// Voting \n    struct Voter {\n        uint weight; // weight is accumulated by delegation\n        bool voted;  // if true, that person already voted\n        address delegate; // person delegated to\n        uint vote;   // index of the voted farm\n    }\n\n    // This is a type for a single farm.\n    struct FarmVote {\n        uint voteCount; // number of accumulated votes\n        address farmAddr;\n    }\n\n    address public chairperson; //one node who made this voting \n\n    mapping(address => Voter) public voters;\n\n    // A dynamically-sized array of `Farm` structs.\n    FarmVote[] public farmVotes;\n\n   function addFarmToVoting(address _farmAddr) public {\n        \n        require ( msg.sender == chairperson,'only chairperson could add farms');\n        \n        farmVotes.push(FarmVote({\n            farmAddr: _farmAddr,\n            voteCount: 0\n        }));\n        }\n\n    // Give `voter` the right to vote.\n    // May only be called by `chairperson`.\n    function giveRightToVote(address voter) public {\n\n        require(\n            msg.sender == chairperson,\n            \"Only chairperson can give right to vote.\"\n        );\n        require(\n            !voters[voter].voted,\n            \"The voter already voted.\"\n        );\n        require(voters[voter].weight == 0);\n        voters[voter].weight = 1;\n    }\n\n    /// Delegate your vote to the voter `to`.\n    function delegate(address to) public {\n        // assigns reference\n        Voter storage sender = voters[msg.sender];\n        require(!sender.voted, \"You already voted.\");\n        require(to != msg.sender, \"Self-delegation is disallowed.\");\n        while (voters[to].delegate != address(0)) {\n            to = voters[to].delegate;\n\n            // We found a loop in the delegation, not allowed.\n            require(to != msg.sender, \"Found loop in delegation.\");\n        }\n\n        // Since `sender` is a reference, this\n        // modifies `voters[msg.sender].voted`\n        sender.voted = true;\n        sender.delegate = to;\n        Voter storage delegate_ = voters[to];\n        if (delegate_.voted) {\n            // If the delegate already voted,\n            // directly add to the number of votes\n            farmVotes[delegate_.vote].voteCount += sender.weight;\n        } else {\n            // If the delegate did not vote yet,\n            // add to her weight.\n            delegate_.weight += sender.weight;\n        }\n    }\n\n    /// Give your vote (including votes delegated to you)\n    /// to farm `farms[farm].name`.\n    function vote(uint farm) public{\n        Voter storage sender = voters[msg.sender];\n        require(!sender.voted, \"Already voted.\");\n        sender.voted = true;\n        sender.vote = farm;\n\n        // If `farm` is out of the range of the array,\n        // this will throw automatically and revert all\n        // changes.\n        farmVotes[farm].voteCount += sender.weight;\n    }\n\n    /// @dev Computes the winning farm taking all\n    /// previous votes into account.\n    function winningFarm() public view\n            returns (uint winningFarm_)\n    {\n        uint winningVoteCount = 0;\n        for (uint p = 0; p < farmVotes.length; p++) {\n            if (farmVotes[p].voteCount > winningVoteCount) {\n                winningVoteCount = farmVotes[p].voteCount;\n                winningFarm_ = p;\n            }\n        }\n    }\n\n    // Calls winningFarm() function to get the index\n    // of the winner contained in the farms array and then\n    // returns the name of the winner\n    function winnerName() public view\n            returns (string winnerName_)\n    {\n        winnerName_ = farms[farmVotes[winningFarm()].farmAddr].name;\n    }\n\n}\n",
  "sourcePath": "/home/tron/blockchain/blockchain/contracts/FarmingInsurance.sol",
  "compiler": {
    "name": "solc",
    "version": "0.4.24+commit.e67f0147.Emscripten.clang"
  },
  "schemaVersion": "2.0.1",
  "updatedAt": "2018-08-27T15:05:13.888Z"
}